S00C000052544F532E73726563D0
S11300000C942A000C9447000C9447000C9447006D
S11300100C9447000C9447000C9477020C9425022E
S11300200C944E020C94FC010C9447000C94470071
S11300300C9447000C9447000C9447000C94470020
S11300400C9447000C9447000C9447000C94470010
S11300500C94470011241FBECFE5D8E0DEBFCDBF0E
S113006010E0A0E6B0E0E2E8F5E002C005900D92F1
S1130070A038B107D9F720E0A0E8B0E001C01D9294
S1130080AD39B207E1F70E94A0010C94BF020C94B1
S11300900000E0E6F0E040E081E090E05191342F90
S11300A0369536953695242F2770513009F443C080
S11300B020F0523009F482C0C5C0323001F133302F
S11300C061F1313071F05AB3BC0102C0660F771F81
S11300D02A95E2F79B01352F322B3ABB3BB320958F
S11300E03DC057B3BC0102C0660F771F2A95E2F7E3
S11300F09B01352F322B37BB38B320953EC054B308
S1130100BC0102C0660F771F2A95E2F79B01352FC9
S1130110322B34BB35B320953FC051B3BC0102C070
S1130120660F771F2A95E2F79B01352F322B31BBDF
S113013032B3209541C0323011F1333081F1313086
S113014079F05AB3BC0102C0660F771F2A95E2F713
S11301509B012095352F32233ABB3BB3232342C066
S113016057B3BC0102C0660F771F2A95E2F79B01C3
S11301702095352F322337BB38B3232343C054B3E0
S1130180BC0102C0660F771F2A95E2F79B012095F8
S1130190352F322334BB35B3232325BB53C051B38E
S11301A0BC0102C0660F771F2A95E2F79B012095D8
S11301B0352F322331BB32B3232343C0323021F1F4
S11301C0333089F1313081F05AB3BC0102C0660F7B
S11301D0771F2A95E2F79B01362F309535233ABBDA
S11301E03BB3232B2BBB2EC057B3BC0102C0660FFD
S11301F0771F2A95E2F79B01362F3095352337BBBD
S113020038B3232B28BB1EC054B3BC0102C0660FF5
S1130210771F2A95E2F79B01362F3095352334BB9F
S113022035B3232BBACF51B3BC0102C0660F771F7D
S11302302A95E2F79B01362F3095352331BB32B333
S1130240232B22BB4F5F403209F028CF0895282F7B
S11302502770869586958695813081F028F08230C6
S1130260B9F08330F9F008953BB381E090E001C028
S1130270880F2A95EAF783278BBB089538B381E06A
S113028090E001C0880F2A95EAF7832788BB089578
S113029035B381E090E001C0880F2A95EAF78327FF
S11302A085BB089532B381E090E001C0880F2A95A0
S11302B0EAF7832782BB0895CF93DF93C0E8D0E0A9
S11302C08C8181110EC08D819E81009739F4EA8161
S11302D0FB81309709F009958881998101979E8364
S11302E08D83279680E0C539D80751F7DF91CF91E8
S11302F008956CE571E081E090E00E94A00278949A
S113030008956115710591F097E0899FF00111241A
S1130310E058FF4F82819381892B51F451834083AC
S11303207383628314823683258302C081E0089537
S113033080E0089580E00C94270181E00C9427016B
S11303400E94490021E030E048EE53E06AE971E0A0
S113035080E00E94810122E030E040ED57E06DE949
S113036071E081E00E9481010E947901FFCF823017
S1130370D9F050F4882379F0813071F58FB58E7FF0
S11303808FBD8FB58D7F21C08330D1F0843021F5AE
S11303908FB5816017C08FB58E7F8FBD8FB58D7F70
S11303A08FBD8EB5877F08C08FB58E7F8FBD8FB50B
S11303B08D7F8FBD8EB588608EBD8EB58F7E0BC050
S11303C08FB58E7F8FBD8FB582608FBD8EB58860EF
S11303D08EBD8EB580618EBD8EB5887F8EBD8EB587
S11303E0682B6EBD089589B7806189BF0895909385
S11303F09A008093990008951F920F920FB60F925E
S113040011242F933F934F935F936F937F938F9315
S11304109F93AF93BF93EF93FF93E0919B00F09171
S11304209C00309709F00995FF91EF91BF91AF912E
S11304309F918F917F916F915F914F913F912F91F8
S11304400F900FBE0F901F9018951F920F920FB62A
S11304500F9211242F933F934F935F936F937F9346
S11304608F939F93AF93BF93EF93FF93E091990082
S1130470F0919A00309709F00995FF91EF91BF919F
S1130480AF919F918F917F916F915F914F913F9128
S11304902F910F900FBE0F901F9018951F920F92DF
S11304A00FB60F9211242F933F934F935F936F9343
S11304B07F938F939F93AF93BF93EF93FF93E091B9
S11304C09700F0919800309709F00995FF91EF910A
S11304D0BF91AF919F918F917F916F915F914F9158
S11304E03F912F910F900FBE0F901F9018951F9260
S11304F00F920FB60F9211242F933F934F935F9354
S11305006F937F938F939F93AF93BF93EF93FF93D7
S1130510E0919500F0919600309709F00995FF91CC
S1130520EF91BF91AF919F918F917F916F915F9167
S11305304F913F912F910F900FBE0F901F901895E0
S11305400F931F93CF93DF938C01EB0162E082E062
S11305500E94B70128EE33E0029FC001039F900D73
S1130560129F900D112401979BBD8ABDCE010E945C
S1130570F701DF91CF911F910F910C94F301F8943F
S1050580FFCFA7
S11305820000010101000000000000000000000161
S11305920000000000020000020202020202020045
S9030000FC
