:100000000C942A000C9447000C9447000C94470071
:100010000C9447000C9447000C941E030C94CC02E3
:100020000C94F5020C94A3020C9447000C94470026
:100030000C9447000C9447000C9447000C94470024
:100040000C9447000C9447000C9447000C94470014
:100050000C94470011241FBECFE5D8E0DEBFCDBF12
:1000600010E0A0E6B0E0E2EDF6E002C005900D92EF
:10007000A038B107D9F720E0A0E8B0E001C01D9298
:10008000AD39B207E1F70E942F020C9467030C947C
:100090000000982F9695969596958770613009F493
:1000A00055C020F0623009F4A1C008959130C1F02C
:1000B00028F0923039F19330B9F108954AB321E034
:1000C00030E0B90102C0660F771F8A95E2F7CB01D5
:1000D000942F982B9ABB9BB3809589238BBB089553
:1000E00047B321E030E0B90102C0660F771F8A955F
:1000F000E2F7CB01942F982B97BB98B38095892377
:1001000088BB089544B321E030E0B90102C0660F16
:10011000771F8A95E2F7CB01942F982B94BB95B368
:100120008095892385BB089541B321E030E0B90172
:1001300002C0660F771F8A95E2F7CB01942F982BA8
:1001400091BB92B38095892382BB08959130C1F011
:1001500028F0923039F19330B9F108954AB321E093
:1001600030E0B90102C0660F771F8A95E2F7CB0134
:100170008095942F98239ABB9BB389238BBB0895BA
:1001800047B321E030E0B90102C0660F771F8A95BE
:10019000E2F7CB018095942F982397BB98B38923DE
:1001A00088BB089544B321E030E0B90102C0660F76
:1001B000771F8A95E2F7CB018095942F982394BB03
:1001C00095B3892385BB089541B321E030E0B9019F
:1001D00002C0660F771F8A95E2F7CB018095942FB6
:1001E000982391BB92B3892382BB08959130C1F0CB
:1001F00028F0923039F19330B9F108954AB321E0F3
:1002000030E0B90102C0660F771F8A95E2F7CB0193
:10021000962F909594239ABB9BB3892B8BBB089503
:1002200047B321E030E0B90102C0660F771F8A951D
:10023000E2F7CB01962F9095942397BB98B3892B27
:1002400088BB089544B321E030E0B90102C0660FD5
:10025000771F8A95E2F7CB01962F9095942394BB54
:1002600095B3892B85BB089541B321E030E0B901F6
:1002700002C0660F771F8A95E2F7CB01962F909503
:10028000942391BB92B3892B82BB0895CF93C0E096
:1002900009C0EC2FF0E0E05AFF4F60818C2F0E94E4
:1002A0004900CF5FC032A8F3CF910895982F96955B
:1002B000969596958770913099F028F09230E9F0F4
:1002C000933041F108954BB321E030E0B90102C011
:1002D000660F771F8A95E2F7CB0184278BBB0895C1
:1002E00048B321E030E0B90102C0660F771F8A955C
:1002F000E2F7CB01842788BB089545B321E030E0C5
:10030000B90102C0660F771F8A95E2F7CB018427F7
:1003100085BB089542B321E030E0B90102C0660F09
:10032000771F8A95E2F7CB01842782BB08951F933C
:10033000CF93DF9310E050C0C12FD0E0FE01EE0F4D
:10034000FF1FEE0FFF1FEE0FFF1FEC1BFD0BE05812
:10035000FF4F848181113FC0FE01EE0FFF1FEE0FA2
:10036000FF1FEE0FFF1FEC1BFD0BE058FF4F8581B9
:100370009681009711F5FE01EE0FFF1FEE0FFF1F94
:10038000EE0FFF1FEC1BFD0BE058FF4F0280F381C7
:10039000E02D309709F00995FE01EE0FFF1FEE0FDB
:1003A000FF1FEE0FFF1FEC1BFD0BE058FF4F80817E
:1003B00091810197968385830EC0FE01EE0FFF1F8A
:1003C000EE0FFF1FEE0FFF1FEC1BFD0BE058FF4F62
:1003D0000197968385831F5F133008F4ADCFDF91BB
:1003E000CF911F91089567E971E081E090E00E944C
:1003F0004703789408956115710529F190E0FC0197
:10040000EE0FFF1FEE0FFF1FEE0FFF1FE81BF90B94
:10041000E058FF4F0280F381E02DEF2BB1F4FC0197
:10042000EE0FFF1FEE0FFF1FEE0FFF1FE81BF90B74
:10043000E058FF4F51834083738362831482368375
:10044000258380E0089581E0089580E0089580E0AC
:100450000E945601089581E00E94560108950E946D
:10046000460121E030E048EE53E067E272E080E0D0
:100470000E94FB0122E030E040ED57E06BE272E0C9
:1004800081E00E94FB010E94F301FFCF823029F13D
:1004900028F4882341F0813099F045C0833051F130
:1004A0008430A9F140C08FB58E7F8FBD8FB58D7F11
:1004B0008FBD8EB5877F8EBD8EB58F7E8EBD33C0CE
:1004C0008FB58E7F8FBD8FB58D7F8FBD8EB58860C8
:1004D0008EBD8EB580618EBD26C08FB58E7F8FBDDF
:1004E0008FB58D7F8FBD8EB588608EBD8EB58F7EAA
:1004F0008EBD19C08FB58E7F8FBD8FB582608FBDC9
:100500008EB588608EBD8EB580618EBD0CC08FB5F6
:1005100081608FBD8FB582608FBD8EB588608EBDC6
:100520008EB580618EBD8EB5887F8EBD8EB5682BF1
:100530006EBD089589B7806189BF089590939A0030
:100540008093990008951F920F920FB60F92112475
:100550002F933F934F935F936F937F938F939F93CB
:10056000AF93BF93EF93FF93E0919B00F0919C00BA
:10057000309709F00995FF91EF91BF91AF919F914D
:100580008F917F916F915F914F913F912F910F903C
:100590000FBE0F901F9018951F920F920FB60F92DB
:1005A00011242F933F934F935F936F937F938F9378
:1005B0009F93AF93BF93EF93FF93E0919900F091D6
:1005C0009A00309709F00995FF91EF91BF91AF9193
:1005D0009F918F917F916F915F914F913F912F915B
:1005E0000F900FBE0F901F9018951F920F920FB68D
:1005F0000F9211242F933F934F935F936F937F93A9
:100600008F939F93AF93BF93EF93FF93E0919700E6
:10061000F0919800309709F00995FF91EF91BF9103
:10062000AF919F918F917F916F915F914F913F918A
:100630002F910F900FBE0F901F9018951F920F9241
:100640000FB60F9211242F933F934F935F936F93A5
:100650007F938F939F93AF93BF93EF93FF93E0911B
:100660009500F0919600309709F00995FF91EF9170
:10067000BF91AF919F918F917F916F915F914F91BA
:100680003F912F910F900FBE0F901F9018950F93D1
:100690001F93CF93DF938C01EB0162E082E00E9415
:1006A000460228EE33E0029FC001039F900D129F87
:1006B000900D112401979BBD8ABDCE010E949E0220
:1006C0000E949A02DF91CF911F910F910895F894A3
:0206D000FFCF5A
:1006D2000000010101000000000000000000000114
:1006E20000000000000200000202020202020200F8
:00000001FF
