S00F0000647269766572732E7372656316
S11300000C943E000C9427050C9450050C9479052F
S11300100C945B000C945B000C9446060C94F40561
S11300200C941D060C94CB050C945B000C945B00A3
S11300300C94A2050C946F060C945B000C94980627
S11300400C945B000C945B000C945B000C945B00C0
S11300500C945B009802980280029802E3029802D2
S1130060E702E702E702E702E702E702E702E70244
S1130070E702E702800280028002B20211241FBE5E
S1130080CFE5D8E0DEBFCDBF10E0A0E6B0E0E6E803
S1130090F2E102C005900D92A83BB107D9F720E028
S11300A0A8EBB0E001C01D92AC3CB207E1F70E949E
S11300B04C020C9441090C94000061E080E00E9421
S11300C0890461E081E00E94890461E082E00E9489
S11300D0890461E083E00C948904DF92EF92FF923B
S11300E00F931F93CF93DF9390E8E92E90E0F92EBE
S11300F0D4E5C0E060E08C2F0E94890400E010E0A9
S11301008CE0D82ED00E8D2D0E940A05811109C0D5
S1130110F701E00FF11FD0818D2D0E940A0588237D
S1130120D9F30F5F1F4F0430110551F761E08C2F95
S11301300E948904CF5F84E0E80EF11CC430D1F63C
S11301408D2FDF91CF911F910F91FF90EF90DF9052
S11301500895CF93C82F60E080E10E9489046C2F3A
S1130160661F6627661F8BE10E948904C6FB66270B
S113017060F98AE10E948904C5FB662760F989E178
S11301800E948904C4FB662760F988E10E948904FF
S113019061E083E10E9489048FEC97E00197F1F715
S11301A000C0000060E083E10E9489048FEC97E0C6
S11301B00197F1F700C00000C3FB662760F98BE1EB
S11301C00E948904C2FB662760F98AE10E948904BF
S11301D0C1FB662760F989E10E9489046C2F617074
S11301E088E10E94890461E083E10E9489048FEC24
S11301F097E00197F1F700C0000060E083E10E94FE
S113020089048FEC97E00197F1F700C00000CF91CB
S11302100895CF93C82F61E080E10E9489046C2F78
S1130220661F6627661F8BE10E948904C6FB66274A
S113023060F98AE10E948904C5FB662760F989E1B7
S11302400E948904C4FB662760F988E10E9489043E
S113025061E083E10E9489048FEC97E00197F1F754
S113026000C0000060E083E10E9489048FEC97E005
S11302700197F1F700C00000C3FB662760F98BE12A
S11302800E948904C2FB662760F98AE10E948904FE
S1130290C1FB662760F989E10E9489046C2F6170B3
S11302A088E10E94890461E083E10E9489048FEC63
S11302B097E00197F1F700C0000060E083E10E943D
S11302C089048FEC97E00197F1F700C00000CF910B
S11302D008952FE788E391E0215080409040E1F7B2
S11302E000C0000082E00E94A90088E20E94A900E8
S11302F08CE00E94A90081E00E94A9008FEC97E0A5
S11303000197F1F700C0000086E00C94A9000C945A
S113031009010F931F93CF938C01C0E0F801EC0FF8
S1130320F11D8081882321F00E940901CF5FF6CF5F
S1130330CF911F910F910895811103C0862F80687A
S113034004C0813021F480EC860F0C94A900089538
S113035081E00E94A9008FEC97E00197F1F700C0BB
S1130360000008954F925F926F927F92AF92BF9276
S1130370CF92DF92EF92FF921F93CF93DF93CDB78B
S1130380DEB72A970FB6F894DEBF0FBECDBF6B0160
S11303907C016115710581059105B1F480E32A960C
S11303A00FB6F894DEBF0FBECDBFDF91CF911F9182
S11303B0FF90EF90DF90CF90BF90AF907F906F90C1
S11303C05F904F900C94090197FF0BC0F094E09458
S11303D0D094C094C11CD11CE11CF11C8DE20E947C
S11303E0090110E09AE0492E512C612C712CAA24A9
S11303F0A394B12CAC0EBD1EA10EB11CC701B60155
S1130400A30192010E941C09605DF50160831F5FD6
S113041069017A01C114D104E104F10441F7112303
S113042041F0FE01E10FF11D80810E94090111508C
S1130430F6CF2A960FB6F894DEBF0FBECDBFDF917C
S1130440CF911F91FF90EF90DF90CF90BF90AF902E
S11304507F906F905F904F9008950F930B3269F0E7
S113046028F40A3299F40E948D080CC00D3241F030
S11304700F3261F40E94330705C00E94C20602C015
S11304800E94C106262F572F482F392F622F752F10
S1130490842F932F0F910895CF93DF9300D000D032
S11304A0CDB7DEB70E94AB030E9469010E945D00D4
S11304B080E990E00E9489012FEF39E688E121501C
S11304C030408040E1F700C000000E94A8018DE99F
S11304D090E00E9489019FEF29E638E19150204085
S11304E03040E1F700C000000E94A8013324339497
S11304F01B8210E0812C912C540175016401212C84
S11305000E946D008A838FEF91EE24E08150904029
S11305102040E1F700C000003A81832F90E0FC0105
S1130520BA97E431F10560F7E65DFF4F0C943B099F
S11305308B81882369F00E94A80160E080E00E941A
S11305409C0188EA90E00E948901812C912C54013D
S11305508A810E9487019A819983332433941B8270
S113056010E09FC08DE30E94870129812F32A1F4FE
S113057020E030E0A901C501B4010E942E078111D9
S11305800BC060E081E00E949C018CEA90E00E9434
S1130590890131E03B8315C00981A5019401C7019C
S11305A0B6010E942D026B017C0160E081E00E9493
S11305B09C01C701B6010E94A5070E94B20181E017
S11305C08B8310E09DCF8EE20E948701A5C09B81A2
S11305D0992341F00E94A801812C912C54017501AA
S11305E06401212C8A810E9487013A81232F30E003
S11305F03C832B83222009F457C01123B1F12053EB
S11306003109B901330F880B990B0E94DD072B01C7
S11306103C01032D10E01C821B8260E070E080E846
S11306209FE32B813C812017310768F420E030E000
S113063040E251E40E948D082B813C812F5F3F4FA3
S11306403C832B83EECF9B01AC01C301B2010E941A
S113065033079B01AC01C501B4010E94C2064B01E2
S11306605C0133941B8211E01CC020E030E040E2C6
S113067051E4C501B4010E948D084B015C018B81DA
S11306809C81C0979C838B83BC01990F880B990B29
S11306900E94DD07A50194010E94C2064B015C0182
S11306A01B82222423942CCF1123C1F12B813C8162
S11306B020533109B901330F880B990B0E94DD07D0
S11306C02B013C01032D10E01C821B8260E070E0D2
S11306D080E89FE32B813C812017310768F420E0F8
S11306E030E040E251E40E948D082B813C812F5F71
S11306F03F4F3C832B83EECF9B01AC01C301B2017E
S11307000E9433079B01AC01C701B6010E94C206D7
S11307106B017C0133941B8211E0F2CE20E030E0C7
S113072040E251E4C701B6010E948D086B017C01CF
S11307308B819C81C0979C838B83BC01990F880B10
S1130740990B0E94DD07A70196010E94C2066B0166
S11307507C011B82D5CEE0E6F0E040E081E090E051
S11307605191342F369536953695242F2770513074
S113077009F443C020F0523009F482C0C5C03230BD
S113078001F1333061F1313071F05AB3BC0102C070
S1130790660F771F2A95E2F79B01352F322B3ABB60
S11307A03BB320953DC057B3BC0102C0660F771F11
S11307B02A95E2F79B01352F322B37BB38B32095AE
S11307C03EC054B3BC0102C0660F771F2A95E2F7FE
S11307D09B01352F322B34BB35B320953FC051B329
S11307E0BC0102C0660F771F2A95E2F79B01352FE3
S11307F0322B31BB32B3209541C0323011F133304A
S113080081F1313079F05AB3BC0102C0660F771F11
S11308102A95E2F79B012095352F32233ABB3BB34F
S1130820232342C057B3BC0102C0660F771F2A9529
S1130830E2F79B012095352F322337BB38B32323AE
S113084043C054B3BC0102C0660F771F2A95E2F778
S11308509B012095352F322334BB35B3232325BB8D
S113086053C051B3BC0102C0660F771F2A95E2F74B
S11308709B012095352F322331BB32B3232343C050
S1130880323021F1333089F1313081F05AB3BC0177
S113089002C0660F771F2A95E2F79B01362F309529
S11308A035233ABB3BB3232B2BBB2EC057B3BC0120
S11308B002C0660F771F2A95E2F79B01362F309509
S11308C0352337BB38B3232B28BB1EC054B3BC011C
S11308D002C0660F771F2A95E2F79B01362F3095E9
S11308E0352334BB35B3232BBACF51B3BC0102C07B
S11308F0660F771F2A95E2F79B01362F3095352333
S113090031BB32B3232B22BB4F5F403209F028CFD7
S11309100895982F96959695969587706130C1F5B0
S1130920913091F028F09230D9F0933029F1089564
S11309304BB321E030E0B90102C0660F771F8A95FE
S1130940E2F7CB01842B3AC048B321E030E0B9018F
S113095002C0660F771F8A95E2F7CB01842B3CC057
S113096045B321E030E0B90102C0660F771F8A95D4
S1130970E2F7CB01842B3EC042B321E030E0B90161
S113098002C0660F771F8A95E2F7CB01842B40C023
S113099061113FC09130A1F028F09230F9F093300A
S11309A059F108954BB321E030E0B90102C0660F5C
S11309B0771F8A95E2F7CB01809584238BBB08953A
S11309C048B321E030E0B90102C0660F771F8A9571
S11309D0E2F7CB018095842388BB089545B321E0D9
S11309E030E0B90102C0660F771F8A95E2F7CB01A8
S11309F08095842385BB089542B321E030E0B9019A
S1130A0002C0660F771F8A95E2F7CB018095842395
S1130A1082BB0895282F2770869586958695813008
S1130A2049F030F0823041F0833079F480B305C06E
S1130A3089B303C086B301C083B390E002C0959527
S1130A4087952A95E2F78170089580E008951F92B2
S1130A500F920FB60F9211242F933F934F935F93EE
S1130A606F937F938F939F93AF93BF93EF93FF9372
S1130A70E091BC00F091BD00309709F00995FF9119
S1130A80EF91BF91AF919F918F917F916F915F9102
S1130A904F913F912F910F900FBE0F901F9018957B
S1130AA01F920F920FB60F9211242F933F934F93DF
S1130AB05F936F937F938F939F93AF93BF93EF93C2
S1130AC0FF93E091BA00F091BB00309709F00995CB
S1130AD0FF91EF91BF91AF919F918F917F916F9112
S1130AE05F914F913F912F910F900FBE0F901F90E8
S1130AF018951F920F920FB60F9211242F933F93C4
S1130B004F935F936F937F938F939F93AF93BF9311
S1130B10EF93FF93E091B800F091B900309709F09A
S1130B200995FF91EF91BF91AF919F918F917F9123
S1130B306F915F914F913F912F910F900FBE0F9046
S1130B401F9018951F920F920FB60F9211242F9396
S1130B503F934F935F936F937F938F939F93AF9341
S1130B60BF93EF93FF93E091BE00F091BF003097E5
S1130B7009F00995FF91EF91BF91AF919F918F91EA
S1130B807F916F915F914F913F912F910F900FBE85
S1130B900F901F9018951F920F920FB60F92112469
S1130BA02F933F934F935F936F937F938F939F9371
S1130BB0AF93BF93EF93FF93E091C600F091C7000A
S1130BC0309709F00995FF91EF91BF91AF919F91F3
S1130BD08F917F916F915F914F913F912F910F90E2
S1130BE00FBE0F901F9018951F920F920FB60F9281
S1130BF011242F933F934F935F936F937F938F931E
S1130C009F93AF93BF93EF93FF93E091C400F09150
S1130C10C500309709F00995FF91EF91BF91AF910D
S1130C209F918F917F916F915F914F913F912F9100
S1130C300F900FBE0F901F9018951F920F920FB632
S1130C400F9211242F933F934F935F936F937F934E
S1130C508F939F93AF93BF93EF93FF93E091C20061
S1130C60F091C300309709F00995FF91EF91BF917E
S1130C70AF919F918F917F916F915F914F913F9130
S1130C802F910F900FBE0F901F9018951F920F92E7
S1130C900FB60F9211242F933F934F935F936F934B
S1130CA07F938F939F93AF93BF93EF93FF93E091C1
S1130CB0C000F091C100309709F00995FF91EF91C0
S1130CC0BF91AF919F918F917F916F915F914F9160
S1130CD03F912F910F900FBE0F901F9018951F9268
S1130CE00F920FB60F9211242F933F934F935F935C
S1130CF06F937F938F939F93AF93BF93EF93FF93E0
S1130D00E091CA00F091CB00309709F00995FF916A
S1130D10EF91BF91AF919F918F917F916F915F916F
S1130D204F913F912F910F900FBE0F901F901895E8
S1130D301F920F920FB60F9211242F933F934F934C
S1130D405F936F937F938F939F93AF93BF93EF932F
S1130D50FF93E091C800F091C900309709F009951C
S1130D60FF91EF91BF91AF919F918F917F916F917F
S1130D705F914F913F912F910F900FBE0F901F9055
S1130D8018955058BB27AA270E94D9060C945308DB
S1130D900E94450838F00E944C0820F039F49F3F27
S1130DA019F426F40C9442080EF4E095E7FB0C9435
S1130DB03C08E92F0E94640858F3BA1762077307C6
S1130DC08407950720F079F4A6F50C9486080EF4B0
S1130DD0E0950B2EBA2FA02D0B01B90190010C0147
S1130DE0CA01A0011124FF27591B99F0593F50F45F
S1130DF0503E68F11A16F040A22F232F342F4427B7
S1130E00585FF3CF469537952795A795F0405395AE
S1130E10C9F77EF41F16BA0B620B730B840BBAF07E
S1130E209150A1F0FF0FBB1F661F771F881FC2F7E9
S1130E300EC0BA0F621F731F841F48F487957795FD
S1130E406795B795F7959E3F08F0B0CF9395880FB7
S1130E5008F09927EE0F9795879508950E94180832
S1130E6008F481E008950E9447070C9453080E94F7
S1130E704C0858F00E94450840F029F45F3F29F0DF
S1130E800C943C0851110C9487080C9442080E945D
S1130E90640868F39923B1F3552391F3951B550B1B
S1130EA0BB27AA2762177307840738F09F5F5F4F39
S1130EB0220F331F441FAA1FA9F335D00E2E3AF078
S1130EC0E0E832D091505040E695001CCAF72BD090
S1130ED0FE2F29D0660F771F881FBB1F26173707E1
S1130EE04807AB07B0E809F0BB0B802DBF01FF2713
S1130EF093585F4F3AF09E3F510578F00C943C08AC
S1130F000C9487085F3FE4F3983ED4F38695779575
S1130F106795B795F7959F5FC9F7880F911D9695CB
S1130F20879597F90895E1E0660F771F881FBB1F27
S1130F30621773078407BA0720F0621B730B840BD4
S1130F40BA0BEE1F88F7E09508950E94AC076894E9
S1130F50B1110C94870808950E946C0888F09F577B
S1130F6098F0B92F9927B751B0F0E1F0660F771FC9
S1130F70881F991F1AF0BA95C9F714C0B13091F0BF
S1130F800E948608B1E008950C948608672F782F94
S1130F908827B85F39F0B93FCCF386957795679584
S1130FA0B395D9F73EF490958095709561957F4FF0
S1130FB08F4F9F4F0895E89409C097FB3EF4909596
S1130FC08095709561957F4F8F4F9F4F9923A9F01E
S1130FD0F92F96E9BB279395F695879577956795AD
S1130FE0B795F111F8CFFAF4BB0F11F460FF1BC0F1
S1130FF06F5F7F4F8F4F9F4F16C0882311F096E984
S113100011C0772321F09EE8872F762F05C0662331
S113101071F096E8862F70E060E02AF09A95660FEA
S1131020771F881FDAF7880F9695879597F90895A3
S1131030990F0008550FAA0BE0E8FEEF16161706E5
S1131040E807F907C0F012161306E407F50798F04D
S1131050621B730B840B950B39F40A2661F0232B66
S1131060242B252B21F408950A2609F4A140A695E2
S11310708FEF811D811D089597F99F6780E870E0C7
S113108060E008959FEF80EC089500240A941616FA
S1131090170618060906089500240A941216130662
S11310A0140605060895092E0394000C11F48823F0
S11310B052F0BB0F40F4BF2B11F460FF04C06F5F0C
S11310C07F4F8F4F9F4F089557FD9058440F551FE2
S11310D059F05F3F71F04795880F97FB991F61F0B6
S11310E09F3F79F087950895121613061406551F2D
S11310F0F2CF4695F1DF08C0161617061806991F99
S1131100F1CF86957105610508940895E894BB278D
S113111066277727CB0197F908950E94A0080C94BD
S113112053080E94450838F00E944C0820F095238B
S113113011F00C943C080C94420811240C94870878
S11311400E94640870F3959FC1F3950F50E0551FFA
S1131150629FF001729FBB27F00DB11D639FAA2708
S1131160F00DB11DAA1F649F6627B00DA11D661F57
S1131170829F2227B00DA11D621F739FB00DA11D78
S1131180621F839FA00D611D221F749F3327A00D32
S1131190611D231F849F600D211D822F762F6A2FCE
S11311A011249F5750409AF0F1F088234AF0EE0F33
S11311B0FF1FBB1F661F771F881F91505040A9F760
S11311C09E3F510580F00C943C080C9487085F3FC7
S11311D0E4F3983ED4F3869577956795B795F7959C
S11311E0E7959F5FC1F7FE2B880F911D9695879514
S11311F097F90895A1E21A2EAA1BBB1BFD010DC08D
S1131200AA1FBB1FEE1FFF1FA217B307E407F507B2
S113121020F0A21BB30BE40BF50B661F771F881F8E
S1131220991F1A9469F760957095809590959B0124
S1131230AC01BD01CF010895052E97FB1EF4009467
S11312400E94330957FD07D00E94FA0807FC03D017
S11312504EF40C94330950954095309521953F4FA9
S11312604F4F5F4F089590958095709561957F4F8E
S11312708F4F9F4F0895EE0FFF1F0590F491E02DBF
S10912800994F894FFCF6D
S1131286000000000000000000000000020202024C
S1131296000000000002000000000002020200003C
S11312A63738392F3435362A3132332D63303D2BD6
S11312B64D6F68616D656420416C69200043686107
S11312C66C6C656E67652000616E73004D617468B1
S10B12D6206572726F720000C2
S9030000FC
